{
  "contractName": "VotingSystem",
  "abi": [
    {
      "inputs": [],
      "name": "electionCount",
      "outputs": [
        {
          "internalType": "uint256",
          "name": "",
          "type": "uint256"
        }
      ],
      "stateMutability": "view",
      "type": "function",
      "constant": true
    },
    {
      "inputs": [
        {
          "internalType": "uint256",
          "name": "",
          "type": "uint256"
        }
      ],
      "name": "elections",
      "outputs": [
        {
          "internalType": "string",
          "name": "name",
          "type": "string"
        },
        {
          "internalType": "uint256",
          "name": "startDate",
          "type": "uint256"
        },
        {
          "internalType": "uint256",
          "name": "endDate",
          "type": "uint256"
        },
        {
          "internalType": "uint256",
          "name": "candidateCount",
          "type": "uint256"
        },
        {
          "internalType": "bool",
          "name": "isResultDeclared",
          "type": "bool"
        }
      ],
      "stateMutability": "view",
      "type": "function",
      "constant": true
    },
    {
      "inputs": [
        {
          "internalType": "string",
          "name": "_name",
          "type": "string"
        },
        {
          "internalType": "uint256",
          "name": "_startDate",
          "type": "uint256"
        },
        {
          "internalType": "uint256",
          "name": "_endDate",
          "type": "uint256"
        }
      ],
      "name": "createElection",
      "outputs": [],
      "stateMutability": "nonpayable",
      "type": "function"
    },
    {
      "inputs": [
        {
          "internalType": "uint256",
          "name": "_electionId",
          "type": "uint256"
        },
        {
          "internalType": "uint256",
          "name": "_candidateId",
          "type": "uint256"
        },
        {
          "internalType": "string",
          "name": "_name",
          "type": "string"
        },
        {
          "internalType": "string",
          "name": "_party",
          "type": "string"
        }
      ],
      "name": "addCandidate",
      "outputs": [],
      "stateMutability": "nonpayable",
      "type": "function"
    },
    {
      "inputs": [
        {
          "internalType": "uint256",
          "name": "_electionId",
          "type": "uint256"
        },
        {
          "internalType": "uint256[]",
          "name": "_candidateIds",
          "type": "uint256[]"
        },
        {
          "internalType": "uint256[]",
          "name": "_voteCounts",
          "type": "uint256[]"
        }
      ],
      "name": "storeResults",
      "outputs": [],
      "stateMutability": "nonpayable",
      "type": "function"
    },
    {
      "inputs": [
        {
          "internalType": "uint256",
          "name": "_electionId",
          "type": "uint256"
        }
      ],
      "name": "getResults",
      "outputs": [
        {
          "internalType": "string[]",
          "name": "",
          "type": "string[]"
        },
        {
          "internalType": "uint256[]",
          "name": "",
          "type": "uint256[]"
        }
      ],
      "stateMutability": "view",
      "type": "function",
      "constant": true
    }
  ],
  "bytecode": "0x608060405234801561001057600080fd5b50611003806100206000396000f3fe608060405234801561001057600080fd5b50600436106100625760003560e01c80635e6fef011461006757806381a60c0d1461009b578063997d2830146100cc578063d03b38ef146100ea578063f46d7b3414610106578063f49a7a1714610122575b600080fd5b610081600480360381019061007c9190610934565b61013e565b604051610092959493929190610c84565b60405180910390f35b6100b560048036038101906100b09190610934565b610209565b6040516100c3929190610c4d565b60405180910390f35b6100d461049c565b6040516100e19190610cfe565b60405180910390f35b61010460048036038101906100ff919061095d565b6104a2565b005b610120600480360381019061011b91906109dc565b6105ea565b005b61013c600480360381019061013791906108cd565b610699565b005b600060205280600052604060002060009150905080600001805461016190610e9d565b80601f016020809104026020016040519081016040528092919081815260200182805461018d90610e9d565b80156101da5780601f106101af576101008083540402835291602001916101da565b820191906000526020600020905b8154815290600101906020018083116101bd57829003601f168201915b5050505050908060010154908060020154908060040154908060050160009054906101000a900460ff16905085565b606080600080600085815260200190815260200160002090506000816004015467ffffffffffffffff811115610268577f4e487b7100000000000000000000000000000000000000000000000000000000600052604160045260246000fd5b60405190808252806020026020018201604052801561029b57816020015b60608152602001906001900390816102865790505b5090506000826004015467ffffffffffffffff8111156102e4577f4e487b7100000000000000000000000000000000000000000000000000000000600052604160045260246000fd5b6040519080825280602002602001820160405280156103125781602001602082028036833780820191505090505b509050600080600190505b8460040154811161048c57846003016000828152602001908152602001600020600001805461034b90610e9d565b80601f016020809104026020016040519081016040528092919081815260200182805461037790610e9d565b80156103c45780601f10610399576101008083540402835291602001916103c4565b820191906000526020600020905b8154815290600101906020018083116103a757829003601f168201915b5050505050848381518110610402577f4e487b7100000000000000000000000000000000000000000000000000000000600052603260045260246000fd5b60200260200101819052508460030160008281526020019081526020016000206002015483838151811061045f577f4e487b7100000000000000000000000000000000000000000000000000000000600052603260045260246000fd5b602002602001018181525050818061047690610ecf565b925050808061048490610ecf565b91505061031d565b5082829550955050505050915091565b60015481565b600080600085815260200190815260200160002090508060050160009054906101000a900460ff161561050a576040517f08c379a000000000000000000000000000000000000000000000000000000000815260040161050190610cde565b60405180910390fd5b60005b83518110156105c65782818151811061054f577f4e487b7100000000000000000000000000000000000000000000000000000000600052603260045260246000fd5b6020026020010151826003016000868481518110610596577f4e487b7100000000000000000000000000000000000000000000000000000000600052603260045260246000fd5b602002602001015181526020019081526020016000206002018190555080806105be90610ecf565b91505061050d565b5060018160050160006101000a81548160ff02191690831515021790555050505050565b6000806000868152602001908152602001600020905080600401600081548092919061061590610ecf565b9190505550604051806060016040528084815260200183815260200160008152508160030160008681526020019081526020016000206000820151816000019080519060200190610667929190610717565b506020820151816001019080519060200190610684929190610717565b50604082015181600201559050505050505050565b600160008154809291906106ac90610ecf565b9190505550600080600060015481526020019081526020016000209050838160000190805190602001906106e1929190610717565b5082816001018190555081816002018190555060008160050160006101000a81548160ff02191690831515021790555050505050565b82805461072390610e9d565b90600052602060002090601f016020900481019282610745576000855561078c565b82601f1061075e57805160ff191683800117855561078c565b8280016001018555821561078c579182015b8281111561078b578251825591602001919060010190610770565b5b509050610799919061079d565b5090565b5b808211156107b657600081600090555060010161079e565b5090565b60006107cd6107c884610d4a565b610d19565b905080838252602082019050828560208602820111156107ec57600080fd5b60005b8581101561081c578161080288826108b8565b8452602084019350602083019250506001810190506107ef565b5050509392505050565b600061083961083484610d76565b610d19565b90508281526020810184848401111561085157600080fd5b61085c848285610e5b565b509392505050565b600082601f83011261087557600080fd5b81356108858482602086016107ba565b91505092915050565b600082601f83011261089f57600080fd5b81356108af848260208601610826565b91505092915050565b6000813590506108c781610fb6565b92915050565b6000806000606084860312156108e257600080fd5b600084013567ffffffffffffffff8111156108fc57600080fd5b6109088682870161088e565b9350506020610919868287016108b8565b925050604061092a868287016108b8565b9150509250925092565b60006020828403121561094657600080fd5b6000610954848285016108b8565b91505092915050565b60008060006060848603121561097257600080fd5b6000610980868287016108b8565b935050602084013567ffffffffffffffff81111561099d57600080fd5b6109a986828701610864565b925050604084013567ffffffffffffffff8111156109c657600080fd5b6109d286828701610864565b9150509250925092565b600080600080608085870312156109f257600080fd5b6000610a00878288016108b8565b9450506020610a11878288016108b8565b935050604085013567ffffffffffffffff811115610a2e57600080fd5b610a3a8782880161088e565b925050606085013567ffffffffffffffff811115610a5757600080fd5b610a638782880161088e565b91505092959194509250565b6000610a7b8383610b7d565b905092915050565b6000610a8f8383610c2f565b60208301905092915050565b6000610aa682610dc6565b610ab08185610e01565b935083602082028501610ac285610da6565b8060005b85811015610afe5784840389528151610adf8582610a6f565b9450610aea83610de7565b925060208a01995050600181019050610ac6565b50829750879550505050505092915050565b6000610b1b82610dd1565b610b258185610e12565b9350610b3083610db6565b8060005b83811015610b61578151610b488882610a83565b9750610b5383610df4565b925050600181019050610b34565b5085935050505092915050565b610b7781610e45565b82525050565b6000610b8882610ddc565b610b928185610e23565b9350610ba2818560208601610e6a565b610bab81610fa5565b840191505092915050565b6000610bc182610ddc565b610bcb8185610e34565b9350610bdb818560208601610e6a565b610be481610fa5565b840191505092915050565b6000610bfc601883610e34565b91507f526573756c747320616c7265616479206465636c6172656400000000000000006000830152602082019050919050565b610c3881610e51565b82525050565b610c4781610e51565b82525050565b60006040820190508181036000830152610c678185610a9b565b90508181036020830152610c7b8184610b10565b90509392505050565b600060a0820190508181036000830152610c9e8188610bb6565b9050610cad6020830187610c3e565b610cba6040830186610c3e565b610cc76060830185610c3e565b610cd46080830184610b6e565b9695505050505050565b60006020820190508181036000830152610cf781610bef565b9050919050565b6000602082019050610d136000830184610c3e565b92915050565b6000604051905081810181811067ffffffffffffffff82111715610d4057610d3f610f76565b5b8060405250919050565b600067ffffffffffffffff821115610d6557610d64610f76565b5b602082029050602081019050919050565b600067ffffffffffffffff821115610d9157610d90610f76565b5b601f19601f8301169050602081019050919050565b6000819050602082019050919050565b6000819050602082019050919050565b600081519050919050565b600081519050919050565b600081519050919050565b6000602082019050919050565b6000602082019050919050565b600082825260208201905092915050565b600082825260208201905092915050565b600082825260208201905092915050565b600082825260208201905092915050565b60008115159050919050565b6000819050919050565b82818337600083830152505050565b60005b83811015610e88578082015181840152602081019050610e6d565b83811115610e97576000848401525b50505050565b60006002820490506001821680610eb557607f821691505b60208210811415610ec957610ec8610f47565b5b50919050565b6000610eda82610e51565b91507fffffffffffffffffffffffffffffffffffffffffffffffffffffffffffffffff821415610f0d57610f0c610f18565b5b600182019050919050565b7f4e487b7100000000000000000000000000000000000000000000000000000000600052601160045260246000fd5b7f4e487b7100000000000000000000000000000000000000000000000000000000600052602260045260246000fd5b7f4e487b7100000000000000000000000000000000000000000000000000000000600052604160045260246000fd5b6000601f19601f8301169050919050565b610fbf81610e51565b8114610fca57600080fd5b5056fea2646970667358221220a16e4b16ce1b5dec2fc7e9e06f18652b0d518575c676bdb0549df43143b66e5a64736f6c63430008000033",
  "immutableReferences": {},
  "source": "// SPDX-License-Identifier: MIT\r\npragma solidity ^0.8.0;\r\n\r\ncontract VotingSystem {\r\n    struct Candidate {\r\n        string name;\r\n        string party;\r\n        uint256 voteCount;\r\n    }\r\n\r\n    struct Election {\r\n        string name;\r\n        uint256 startDate;\r\n        uint256 endDate;\r\n        mapping(uint256 => Candidate) candidates;\r\n        uint256 candidateCount;\r\n        bool isResultDeclared;\r\n    }\r\n\r\n    mapping(uint256 => Election) public elections;\r\n    uint256 public electionCount;\r\n\r\n    // Create an election\r\n    function createElection(string memory _name, uint256 _startDate, uint256 _endDate) public {\r\n        electionCount++;\r\n        Election storage newElection = elections[electionCount];\r\n        newElection.name = _name;\r\n        newElection.startDate = _startDate;\r\n        newElection.endDate = _endDate;\r\n        newElection.isResultDeclared = false;\r\n    }\r\n\r\n    // Add a candidate to a specific election\r\n    function addCandidate(uint256 _electionId, uint256 _candidateId, string memory _name, string memory _party) public {\r\n        Election storage election = elections[_electionId];\r\n        election.candidateCount++;\r\n        election.candidates[_candidateId] = Candidate(_name, _party, 0);\r\n    }\r\n\r\n    // Store the results for an election\r\n    function storeResults(uint256 _electionId, uint256[] memory _candidateIds, uint256[] memory _voteCounts) public {\r\n        Election storage election = elections[_electionId];\r\n        require(!election.isResultDeclared, \"Results already declared\");\r\n\r\n        for (uint256 i = 0; i < _candidateIds.length; i++) {\r\n            election.candidates[_candidateIds[i]].voteCount = _voteCounts[i];\r\n        }\r\n\r\n        election.isResultDeclared = true;\r\n    }\r\n\r\n    // Get the results for an election\r\n    function getResults(uint256 _electionId) public view returns (string[] memory, uint256[] memory) {\r\n        Election storage election = elections[_electionId];\r\n        string[] memory candidateNames = new string[](election.candidateCount);\r\n        uint256[] memory voteCounts = new uint256[](election.candidateCount);\r\n\r\n        uint256 candidateIndex = 0;\r\n        // Loop through the candidates by their ID (using _candidateIds array or loop with candidateCount)\r\n        for (uint256 i = 1; i <= election.candidateCount; i++) {\r\n            candidateNames[candidateIndex] = election.candidates[i].name;\r\n            voteCounts[candidateIndex] = election.candidates[i].voteCount;\r\n            candidateIndex++;\r\n        }\r\n\r\n        return (candidateNames, voteCounts);\r\n    }\r\n}\r\n",
  "sourcePath": "E:\\blockchain-voting\\blockchain\\contracts\\VotingSystem.sol",
  "compiler": {
    "name": "solc",
    "version": "0.8.0+commit.c7dfd78e.Emscripten.clang"
  },
  "schemaVersion": "3.4.16",
  "updatedAt": "2024-12-16T01:34:36.072Z",
  "networkType": "ethereum",
  "devdoc": {
    "kind": "dev",
    "methods": {},
    "version": 1
  },
  "userdoc": {
    "kind": "user",
    "methods": {},
    "version": 1
  }
}